:020000040800F2
:1000000000000120A10B0008750B0008770B000809
:10001000790B00087B0B00087D0B00080000000036
:100020000000000000000000000000007F0B00083E
:10003000810B000800000000830B0008850B0008FE
:10004000F10B0008F10B0008F10B0008F10B0008A0
:10005000F10B0008F10B0008F10B0008F10B000890
:10006000F10B0008F10B0008F10B0008F10B000880
:100070003903000855030008710300088D030008C8
:10008000F10B0008F10B0008F10B0008F10B000860
:10009000F10B0008F10B0008F10B0008F10B000850
:1000A000F10B0008F10B0008F10B0008F10B000840
:1000B000F10B0008F10B0008F10B0008F10B000830
:1000C000F10B0008F10B0008F10B0008F10B000820
:1000D000F10B0008A9030008F10B000879040008DF
:1000E000F10B0008F10B0008F10B0008F10B000800
:1000F000F10B0008F10B0008F10B0008F10B0008F0
:10010000F10B00080000000000000000F10B0008E7
:100110005D05000841060008F10B0008F10B00081E
:10012000F10B0008F10B0008F10B0008F10B0008BF
:10013000F10B0008F10B00080000000000000000B7
:10014000F10B0008F10B0008F10B000800000000A3
:10015000000000000000000000000000000000009F
:10016000F10B0008F10B0008F10B0008F10B00087F
:10017000F10B0008F10B0008F10B0008F10B00086F
:10018000F10B0008F10B0008000000000000000067
:04019000F10B000867
:1001940010B5054C237833B9044B13B10448AFF3BD
:1001A40000800123237010BD3C00002000000000EB
:1001B4000C15000808B5034B1BB103490348AFF302
:1001C400008008BD00000000400000200C1500085D
:1001D4000246007828B100200130C0B2135C002B25
:1001E400FAD170470023214A90421CD002F5704294
:1001F400904230D11E4B9A6D22F001029A651D4A3D
:100204001A661D4A5A663222DA6542F282029A65F9
:100214001A498A6842F040028A609A6D42F00102EB
:100224009A650F2317E0124B1A6B22F001021A632E
:10023400134A9A63134ADA6332225A6342F28202FD
:100244001A630A498A6842F040028A601A6B42F0D3
:1002540001021A630D230C49CA18102082F8000306
:10026400DBB2012202FA03F30B607047004800403E
:100274000000024024380140800100200038014081
:10028400244800404C01002000E100E010B5024683
:10029400084622498A4227D0002301F570418A4248
:1002A40017D11F4C636C23F0010363641D4BE3649B
:1002B4002065FFF78DFFA06442F2920363641A4A3B
:1002C400936843F080039360636C43F001036364B9
:1002D4000E231649CA18102082F80003DBB201224B
:1002E40002FA03F30B6010BD0D4CE36923F0010324
:1002F400E3610F4B6362A062FFF76AFF206242F280
:100304009203E361054A936843F080039360E369D1
:1003140043F00103E3610C23DBE700BF0048004026
:1003240000000240283801400038014000E100E0AC
:1003340028480040054B1B6813F0200F04D0034AE3
:10034400536843F020035360704700BF000002402D
:10035400054B1B6813F4007F04D0034A536843F42D
:1003640000735360704700BF00000240054B1B68D8
:1003740013F4005F04D0034A536843F400535360FA
:10038400704700BF00000240054B1B6813F4003F98
:1003940004D0034A536843F400335360704700BFEA
:1003A400000002402D4BDB6913F0800F17D02B4B5C
:1003B4001B6813F0800F12D0294B1A8892B2294B74
:1003C4001B889BB29A423FD2274B186824490B885A
:1003D4009BB25A1C92B20A80C25C204B1A851F4BF6
:1003E400DB6913F0400F0DD01C4B1B6813F0400F5A
:1003F40008D01A4B1A6A42F040021A621A6822F0B4
:1004040040021A60154BDB6913F0200F1BD0174B09
:100414001B889BB2312B16D8104B988C134A138827
:100424009BB2591C89B211801149C85413889BB2DC
:10043400012B08D9138811FA83F313F8023C0D2B0E
:1004440004BF0A4B1B887047044B1A6822F08002D1
:100454001A601A6842F040021A60C0E7003801408E
:10046400100100200E0100201401002012010020C0
:1004740018010020324BDB6913F0800F17D0304B8A
:100484001B6813F0800F12D02E4B1A8892B22E4B99
:100494001B889BB29A423DD22C4B186829490B8881
:1004A4009BB25A1C92B20A80C25C254B1A85244B1B
:1004B400DB6913F0400F0DD0214B1B6813F0400F84
:1004C40008D01F4B1A6A42F040021A621A6822F0DE
:1004D40040021A601A4BDB6913F0200F19D01C4B31
:1004E4001B889BB2312B14D8154B988C184A13884F
:1004F4009BB2591C89B211801649C85413889BB207
:10050400012B06D9138811FA83F313F8023C0D2B3F
:100514000AD070470A4B1A6822F080021A601A68DF
:1005240042F040021A60C2E7094B1B8811FA83F3B8
:1005340013F8013C0A2BECD1054B00221A80E8E7A2
:1005440000480040D4000020D2000020D800002041
:10055400D6000020DC000020324BDB6913F0800F52
:1005640017D0304B1B6813F0800F12D02E4B1A8813
:1005740092B22E4B1B889BB29A423DD22C4B1868E8
:1005840029490B889BB25A1C92B20A80C25C254B43
:100594001A85244BDB6913F0400F0DD0214B1B68E7
:1005A40013F0400F08D01F4B1A6A42F040021A623F
:1005B4001A6822F040021A601A4BDB6913F0200F0C
:1005C40019D01C4B1B889BB2312B14D8154B988C1B
:1005D400184A13889BB2591C89B211801649C85411
:1005E40013889BB2012B06D9138811FA83F313F8ED
:1005F400023C0D2B0AD070470A4B1A6822F0800285
:100604001A601A6842F040021A60C2E7094B1B885C
:1006140011FA83F313F8013C0A2BECD1054B0022A9
:100624001A80E8E7004C0040980000209600002063
:100634009C0000209A000020A0000020324BDB69BF
:1006440013F0800F17D0304B1B6813F0800F12D0BB
:100654002E4B1A8892B22E4B1B889BB29A423DD2E3
:100664002C4B186829490B889BB25A1C92B20A80F9
:10067400C25C254B1A85244BDB6913F0400F0DD067
:10068400214B1B6813F0400F08D01F4B1A6A42F02D
:1006940040021A621A6822F040021A601A4BDB699F
:1006A40013F0200F19D01C4B1B889BB2312B14D88C
:1006B400154B988C184A13889BB2591C89B2118027
:1006C4001649C85413889BB2012B06D9138811FA12
:1006D40083F313F8023C0D2B0AD070470A4B1A68B7
:1006E40022F080021A601A6842F040021A60C2E7DF
:1006F400094B1B8811FA83F313F8013C0A2BECD144
:10070400054B00221A80E8E7005000405A00002000
:1007140058000020600000205C00002064000020DD
:1007240000B591B02422002107A800F0C1FE0023E7
:1007340001930293039304930593022306930122E6
:10074400099210220A920C934FF400430D934FF434
:10075400E0130E9306A800F0CDFA78B90F230193A5
:10076400022302930023039304930593012101A818
:1007740000F0D4FD20B911B05DF804FB72B6FEE7B9
:1007840072B6FEE7F0B5BDF81450022A1AD0B0F1E3
:10079400904F33D09E4A90427ED09E4A904200F0C1
:1007A40081809D4A904200F083809C4A904200F0F0
:1007B40085809B4A904226D19A4C626942F4800219
:1007C400626120E0984A914212D008D8A2F50062F2
:1007D400914207D002F580629142D8D102E0934A57
:1007E4009142D4D18F4C626942F001026261CEE73A
:1007F4008C4C626942F002026261C8E7894C62690A
:1008040042F400326261894A91425DD0884A914241
:1008140000F0AF80874A914200F0B180824A914251
:1008240000F0B380844A914253D102F5E032546916
:1008340044F480145461D46944F48014D46152693A
:1008440012F4002F45D0774A526912F4801F40D029
:10085400704B1A6822F040721A601A6842F00072F3
:100864001A605A6A22F470225A625A6A42F4A02226
:100874005A6203F580631A6822F030021A601A681B
:1008840042F020021A601A6A22F470621A621A6A2A
:1008940042F4A0621A629EE0624C626942F48022D1
:1008A4006261B0E75F4C626942F400226261AAE7C8
:1008B4005C4C626942F480126261A4E7594C62693B
:1008C40042F4001262619EE7564CA26942F48042EF
:1008D400A26106685C004FF0030C0CFA04F226EAED
:1008E4000206066006684FF0020E0EFA04F4344362
:1008F400046004686E000CFA06FC6FEA0C0724EA34
:100904000C04046004680EFA06FE4EEA0404046053
:10091400846842EA0C0224EA020484608468224364
:100924008260424A914236D0A2F57442914232D05A
:10093400404A914250D03C4A914244D1426A083BD9
:100944009B000F2101FA03F422EA04024262446A82
:10095400052202FA03F323434362436A083DAD00D0
:10096400A94023EA01034362436AAA401A4342624C
:1009740029E02C4CE26942F40032E261A9E7294CF7
:10098400E26942F48022E261A3E7264CE26942F480
:100994000022E2619DE7026A9B000F2101FA03F441
:1009A40022EA04020262046A072202FA03F32343DE
:1009B4000362036AAD00A94023EA01030362036AE8
:1009C400AA401A430262C3683B40C360C268012361
:1009D400B3401343C360F0BD426A083B9B000F2140
:1009E40001FA03F422EA04024262446A072202FA88
:1009F40003F323434362436A083DAD00A94023EA5D
:100A040001034362436AAA401A434262DBE700BF20
:100A14000004004800080048000C0048001000488A
:100A24000014004800100240004C0040003801400F
:100A34000044004000480040005000400B4B1B683D
:100A440003EB5203B3FBF2F200230360C36092B2E0
:100A5400C260036843F004030360036843F00803BF
:100A64000360036843F00103036070473000002013
:100A74008C46097859B10022C36913F0800FFBD06A
:100A840001850132D2B21CF802100029F4D1C369E5
:100A940013F0400FFBD0704780B584B0FFF740FEE1
:100AA4002B4B5A6942F400325A615B6903F40033F8
:100AB4000393039B274D032300930223012229461A
:100AC4004FF09040FFF75EFE012701970024009449
:100AD40008234FF4165221462846FFF7AFFF1E495C
:100AE4002846FFF7C5FF1D4E052300930423022269
:100AF40031461B48FFF746FE0197009408234FF444
:100B0400E13221463046FFF799FF05F580650B2356
:100B140000930A23022229461248FFF733FE019765
:100B2400009408234FF4E13221462846FFF786FF5C
:100B34002846FFF757FB0C493046FFF7A7FB304622
:100B4400FFF750FB09492846FFF7A0FBFEE700BF6B
:100B54000010024000440040241500080038014001
:100B6400000800480004004818000020000000208D
:100B7400FEE7FEE7FEE7FEE7FEE7704770477047D3
:100B840008B500F05BF808BD034AD2F8883043F496
:100B94007003C2F88830704700ED00E0DFF834D00D
:100BA400FFF7F2FF0C480D490D4A002302E0D45828
:100BB400C4500433C4188C42F9D30A4A0A4C0023A3
:100BC40001E013600432A242FBD300F079FCFFF78A
:100BD40063FFFEE700000120000000203C0000202D
:100BE400701500083C000020B8010020FEE700005A
:100BF40010B504460E4B1A784FF47A73B3FBF2F334
:100C04000C4A1068B0FBF3F000F060F868B90F2CE0
:100C140001D901200AE0002221464FF0FF3000F004
:100C24001FF8054B1C60002000E0012010BD00BF30
:100C3400340000203000002038000020034A1168EE
:100C4400034B1B780B441360704700BFB4010020B2
:100C540034000020014B1868704700BFB401002025
:100C640000B5184BDB68C3F30223C3F1070CBCF1D6
:100C7400040F28BF4FF0040C03F1040EBEF1060F5D
:100C84008CBF033B00234FF0FF3E0EFA0CFC21EA1D
:100C94000C0199400EFA03FE22EA0E0211430028C9
:100CA40009DB0901C9B200F1604000F5614080F838
:100CB40000135DF804FB00F00F000901C9B2024BF8
:100CC4001954F6E700ED00E014ED00E00138B0F14E
:100CD400807F0BD24FF0E0235861054AF02182F85F
:100CE40023100020986107221A6170470120704781
:100CF40000ED00E0002800F0DD822DE9F04383B030
:100D04000446036813F0010F39D0C04B5B6803F04D
:100D14000C03042B20D0BD4B5B6803F00C03082BA1
:100D240013D06368B3F5803F65D0002B40F0858015
:100D340003F1804303F504331A6822F480321A6005
:100D44001A6822F480221A605AE0B04B5B6803F4FC
:100D5400C033B3F5803FE4D14FF4003393FAA3F2E8
:100D6400AA4A116893FAA3F3B3FA83F3012202FAAD
:100D740003F30B4203D06368002B00F09D822368C9
:100D840013F0020F00F0B680A04B5B6813F00C0F59
:100D940000F091809D4B5B6803F00C03082B00F07E
:100DA4008280E368002B00F0E280012292FAA2F331
:100DB400B3FA83F303F1845303F584139B001A609D
:100DC400FFF748FF06460225DFF84082012795FA1F
:100DD400A5F3D8F8002095FAA5F3B3FA83F307FA3C
:100DE40003F3134240F0B580FFF734FF801B022861
:100DF400EDD9032065E2854A136843F48033136018
:100E04006368A3B3FFF726FF06464FF40035DFF807
:100E1400FC81012795FAA5F3D8F8002095FAA5F3EB
:100E2400B3FA83F307FA03F31342A8D1FFF712FFCF
:100E3400801B6428EED9032043E2B3F5A02F09D028
:100E4400724B1A6822F480321A601A6822F48022E3
:100E54001A60D5E703F18043A3F53C331A6842F4E2
:100E640080221A601A6842F480321A60C8E7FFF7D9
:100E7400F1FE06464FF40035DFF89081012795FA1C
:100E8400A5F3D8F8002095FAA5F3B3FA83F307FA8B
:100E940003F313423FF473AFFFF7DCFE801B6428B7
:100EA400EDD903200DE2594B5B6803F4C033B3F56D
:100EB400004F7FF476AF022393FAA3F2534A1168EA
:100EC40093FAA3F3B3FA83F3012202FA03F30B4276
:100ED40003D0E368934240F0F1814C480168F82262
:100EE40092FAA2F2B2FA82F22369934021F0F80254
:100EF40013430360236813F0080F00F08B806369C9
:100F0400002B5AD0012191FAA1F2B2FA82F2404B9D
:100F140013449B001960FFF79DFE06460225DFF887
:100F2400EC80012795FAA5F395FAA5F395FAA5F3B4
:100F3400D8F8242095FAA5F3B3FA83F307FA03F358
:100F4400134267D1FFF786FE801B0228EAD90320EB
:100F5400B7E12E480168F82292FAA2F2B2FA82F2BC
:100F64002369934021F0F80213430360C2E701238D
:100F740093FAA3F3B3FA83F303F1845303F58413CD
:100F84009B0000221A60FFF765FE06460225DFF883
:100F94007C80012795FAA5F3D8F8002095FAA5F3EB
:100FA400B3FA83F307FA03F31342A3D0FFF752FE15
:100FB400801B0228EED9032083E1012292FAA2F2D7
:100FC400B2FA82F2124B13449B0000221A60FFF71C
:100FD40041FE06460225DFF83480012795FAA5F381
:100FE40095FAA5F395FAA5F3D8F8242095FAA5F374
:100FF400B3FA83F307FA03F313420BD0FFF72AFE85
:10100400801B0228EAD903205BE100BF00100240E4
:1010140020819010236813F0040F00F09B80AD4BE7
:10102400DB6913F0805F22D1AA4BDA6942F0805267
:10103400DA61DB6903F080530193019B4FF00109EE
:10104400A54B1B6813F4807F14D0A368012B25D013
:10105400002B48D103F1804303F504331A6A22F0CC
:1010640001021A621A6A22F004021A621BE04FF0AB
:101074000009E5E7984A136843F480731360FFF7A7
:10108400E9FD0546944E336813F4807FDDD1FFF704
:10109400E1FD401B6428F6D9032012E18D4A136A4E
:1010A40043F001031362A3689BB3FFF7D3FD064625
:1010B4000225DFF82082012795FAA5F395FAA5F316
:1010C400D8F8202095FAA5F3B3FA83F307FA03F3CB
:1010D40013423CD1FFF7BEFD801B41F28833984296
:1010E400EAD90320EDE0052B09D07A4B1A6A22F0E5
:1010F40001021A621A6A22F004021A62D3E7754BDB
:101104001A6A42F004021A621A6A42F001021A626E
:10111400C9E7FFF79FFD06460225DFF8B8810127DE
:1011240095FAA5F395FAA5F3D8F8202095FAA5F336
:10113400B3FA83F307FA03F3134208D0FFF78AFDE7
:10114400801B41F288339842EAD90320B9E0B9F10F
:10115400000F32D1A369002B00F0B2805D4A5268BF
:1011640002F00C02082A00F08F80022B2BD04FF0E3
:10117400807393FAA3F3B3FA83F303F1845303F56F
:1011840084139B0000221A60FFF764FD05464FF0AC
:101194000074504F012694FAA4F33A6894FAA4F325
:1011A400B3FA83F306FA03F313426BD0FFF752FD4D
:1011B400401B0228EFD9032083E0464AD36923F079
:1011C4008053D361C6E74FF0807393FAA3F3B3FA65
:1011D40083F303F1845303F584139B0000221A6004
:1011E400FFF738FD06464FF00075DFF8E880012769
:1011F40095FAA5F3D8F8002095FAA5F3B3FA83F38A
:1012040007FA03F3134206D0FFF724FD801B0228DC
:10121400EED9032055E02F4AD36A23F00F03616A05
:101224000B43D3625168236AE069034321F47611C6
:101234000B4353604FF0807393FAA3F3B3FA83F331
:1012440003F1845303F584139B0001221A60FFF712
:1012540001FD05464FF000741E4F012694FAA4F3D5
:101264003A6894FAA4F3B3FA83F306FA03F3134245
:1012740006D1FFF7EFFC401B0228EFD9032020E042
:1012840000201EE000201CE0012B1DD0114B5A68E9
:10129400DB6A02F4C030E169884217D102F47012AB
:1012A400216A8A4214D103F00F03606A181A18BF26
:1012B400012006E001207047012002E0012000E047
:1012C400002003B0BDE8F0830120FAE70120F8E72D
:1012D4000120F6E700100240007000400B4B5B68F1
:1012E40003F00C02082A01D009487047C3F3834273
:1012F4000849885C054AD26A02F00F0206498A5CF2
:10130400034BB3FBF2F303FB00F070470010024001
:1013140000127A005815000848150008002800F04B
:10132400B4802DE9F0410D4604465C4B1B6803F084
:1013340007038B420BD2594A136823F007030B436C
:101344001360136803F007038B4240F0A080236806
:1013540013F0020F06D0524A536823F0F003A16839
:101364000B435360236813F0010F4ED06268012AC7
:1013740029D0022A38D0022393FAA3F148490868F5
:1013840093FAA3F3B3FA83F3012101FA03F30342BB
:101394007FD043494B6823F0030313434B60FFF7AB
:1013A40059FC06463E4F41F288387B6803F00C0333
:1013B4006268B3EB820F28D0FFF74CFC801B4045DA
:1013C400F3D903205FE04FF4003393FAA3F13449D7
:1013D400086893FAA3F3B3FA83F3012101FA03F340
:1013E4000342D6D101204EE04FF0007393FAA3F1EB
:1013F4002B49086893FAA3F3B3FA83F3012101FAA2
:1014040003F30342C5D101203DE0244B1B6803F0E4
:101414000703AB420AD9214A136823F007032B437D
:101424001360136803F00703AB4234D1236813F04D
:10143400040F06D01A4A536823F4E063E1680B43AF
:101444005360236813F0080F07D0154A53682169C5
:1014540023F4605343EAC1035360FFF73FFF104B8B
:101464005B68F02292FAA2F2B2FA82F203F0F0037D
:10147400D3400C4AD35CD8400B4B18600B4B186814
:10148400FFF7B6FB0020BDE8F08101207047012082
:10149400F9E70120F7E70120F5E700BF002002404B
:1014A40000100240381500083000002038000020E9
:1014B40002440346934200D1704703F8011BF9E745
:1014C40070B50D4D0D4C641BA4100026A64209D125
:1014D4000B4D0C4C00F018F8641BA4100026A64217
:1014E40005D170BD55F8043B98470136EEE755F831
:1014F400043B98470136F2E76815000868150008B0
:10150400681500086C150008F8B500BFF8BC08BCE5
:101514009E467047F8B500BFF8BC08BC9E467047AD
:1015240055415254322053746172742E2E2E210D63
:101534000A00000000000000000000000102030493
:10154400060708090102030405060708090A0B0C2B
:101554000D0E0F1002030405060708090A0B0C0DF3
:041564000E0F101046
:04156800B9010008BD
:04156C0095010008DD
:1015700048454C4C4F204920414D20554152543351
:1015800020444D410D0A000048454C4C4F20492055
:10159000414D20554152543120444D410D0A000027
:0C15A00000127A000100000010000000A2
:0400000508000BA143
:00000001FF
